:100000008031482A00000B0028340C3401340634B7
:100010000C10D6376C3AE936653AF2372028C921F8
:1000200000000C1025367510F6376C3A73100A1064
:100030000D00203085000E308400000803192E28A2
:100040000130F800F701F70B2328F80B22284A307B
:10005000F700F70B29282C28800B20280800350EE4
:10006000F039F7000F300D0577048D0000000D14F6
:1000700039280D1008000D08F7000D0E0F39F80093
:10008000080021000D108D100D1120008D100F3073
:1000900021000D05F0388D0020000D1500000D1415
:1000A00000003B207808B5000D1000000D14000082
:1000B0003B207808B4000D100F3021000D058D0095
:1000C0002000350EF700F030F70577083404F8000B
:1000D0007808B400B41B4728321C8D1032188D14D8
:1000E00000000D1100000D10330EB4000F30B405E8
:1000F0003408B5002F2033080F39B400B5002F2085
:1001000008000F3021000D058D000D108D100D1110
:1001100020008D100D110D100F30AE001920013090
:10012000A2002208033C031C9D280330B5002F20A9
:100130000530AE001920A20A91280230B5002F2008
:100140000530AE001920A2012208033C031CB1288F
:1001500022080320A300B2012308B3004120A20A11
:10016000A4288031652A2F0BB628B9284030B0006A
:10017000BA28B00101302E02B00730088038B10033
:10018000B2013108B300412008002D08073A0319D5
:10019000D3280B3A0319D828063A0319E028023A63
:1001A0000319E628EB280130AE00AF00B320F02899
:1001B000B2010130B30041200230AE001920F02816
:1001C0000130AE000230AF00B320F028B201103091
:1001D000B3004120F0280130B2002D08B3004120C7
:1001E00008000B08A2008B132300951715140000BC
:1001F000000013087F39031932292000A3002300CF
:1002000011082000A400230012082000A5002308E4
:10021000AD00C520240823009100200025082300FC
:1002200092009517151400000000130D140D7F396E
:10023000031932292000A300230011082000A40084
:10024000230012082000A5002308AD00C5202408C3
:10025000230091002000250823009200910A031931
:10026000920AF5282000A21B8B1780316C2A2100EE
:100270009D141130F7009D1C3F29F70B3B291C08EA
:10028000FA001B082000A0007A08A1002108A500A0
:100290002008A400A7012830A6001030A800F7010C
:1002A000FA01A50CA40C031C5B292608F707031808
:1002B000FA0A2708FA07FA0CF70CF90CF80CA80B45
:1002C00051297908A5007808A4002508A70024086A
:1002D000A6000330A900FF30A800F801F901F701DA
:1002E000FA012908031D77292808031991291030DC
:1002F000AA000310A60DA70DF70DFA0D29087A0222
:10030000031D842928087702031C8D292808F70279
:10031000031CFA032908FA020314F80DF90DAA0BBD
:1003200079297908A3007808A2002208F800230898
:10033000F90080317E2A0508AC000408AB00250EC8
:10034000F038A700A707E23EA800323EAA00250821
:100350000F39A807A807AA07E93EA900A907A90716
:10036000240E0F39A907AA07A90DAA0DAA09AA0DDB
:1003700024080F39AA07A70D0730A6000A30AA07DC
:10038000A903031CBF29A907A803031CC329A807A5
:10039000A703031CC729A707A603031CCB298501B4
:1003A0002630840007302B052B1384072A300402E3
:1003B00003192B170008F700031DE6292B1BE6295C
:1003C0002B1AF529AB19E6292030E929AB152B1298
:1003D0003030F7070508A5000408A4007708AD0031
:1003E000C520250885002408840001312B1FD6294B
:1003F00080318F2A0B08A5008B1323009517151445
:10040000000000000318262A13087F392000A600E8
:10041000230011082000A700230012082000A800D4
:100420002608AD00C52027082300910020002808D9
:100430002300920095171514000000002000A40B63
:10044000222A242A2300262A442A2300130D140DCD
:100450007F392000A600230011082000A7002300F8
:1004600012082000A8002608AD00C5202708230098
:1004700091002000280823009200910A0319920A93
:1004800003102000A40BFD29A51B8B178031992A8E
:100490006A30210099001A0823008C018D01220086
:1004A000920191019401930121001E109E101E11D2
:1004B000013023008C0000308D0021001E169E1696
:1004C0001E139E171D142000812808302300910060
:1004D000003092002000F1283230AE0019200030A8
:1004E000F80021001D08833978049D000230F700D0
:1004F000F70B782A7B2A0000200037297908A3000F
:100500007808A2000C30AD00C5202030AD00C52019
:10051000103084002308A5002208A4009B29133072
:10052000230091000030920003140A302000A40040
:0C053000FA293230AE0019206F2A630057
:020000040001F9
:04000E008439FF1E14
:00000001FF
;PIC16F1827
;CRC=B7FE  CREATED="05-set-21 18:27"
