:100000008031FC2900000B0028340C340134063404
:100010004334613920362039E53165316932EF10DA
:100020008A0600004334613920322039E5316531D8
:100030006932EF108A060001433468346134723447
:10004000203469346E347634E1346C346934643489
:100050006F3421340A340D3400344937E3346137C6
:10006000E437202643220000203085000830840039
:100070000008031949280130F800F701F70B3E2862
:10008000F80B3D284A30F700F70B44284728800B2F
:100090003B2808002F0EF039F7000F300D057704CC
:1000A0008D0000000D1454280D1008000D08F700F5
:1000B0000D0E0F39F800080021000D108D100D11E4
:1000C00020008D100F3021000D05F0388D0020002C
:1000D0000D1500000D14000056207808AF000D101B
:1000E00000000D14000056207808AE000D100F30EF
:1000F00021000D058D0020002F0EF700F030F705D0
:1001000077082E04F8007808AE00AE1B62282C1C7D
:100110008D102C188D1400000D1100000D102D0EE7
:10012000AE000F30AE052E08AF004A202D080F3963
:10013000AE00AF004A2008000F3021000D058D00F1
:100140000D108D100D1120008D100D110D100F30A0
:10015000A80034200130A3002308033C031CB82866
:100160000330AF004A200530A8003420A30AAC2891
:100170000230AF004A200530A8003420A301230834
:10018000033C031CCC2823080320A400AC01240852
:10019000AD005C20A30ABF288031102A21000D1574
:1001A00020000D19D1280830F700A301F717E62821
:1001B000F713E62803100D190314A30C7717E6288C
:1001C0007713F70BDA282308F800F2281C30F71B06
:1001D0000730F800F80BEA280000F71BD828771B37
:1001E000E028DA28080021000D1022000D1421005B
:1001F0008D1022008D100830F800FE280000F8173E
:100200001129F8132000A70C220003188D14031CD9
:100210008D10781711297813F80B02290F29000087
:100220008D141B308400840B132916290000F81B41
:100230000129781B0B2921000D1022000D10200030
:1002400008000B08A3008B1323009517151400005A
:10025000000013087F39031962292000A40023003D
:1002600011082000A500230012082000A600240881
:10027000A700F32025082300910020002608230072
:1002800092009517151400000000130D140D7F390E
:10029000031962292000A400230011082000A500F2
:1002A000230012082000A6002408A700F320250838
:1002B000230091002000260823009200910A0319D0
:1002C000920A25292000A31B8B1708008008031918
:1002D00076290508A4000408A3000008A700F3205D
:1002E00024088500230884000131662980313A2AD8
:1002F000290B7B297E294030AA007F29AA010130E1
:100300002802AA072A088038AB00AC012B08AD00F0
:100310005C2008002708073A031998290B3A0319AB
:100320009D29063A0319A529023A0319AB29B029D8
:100330000130A800A9007821B529AC010130AD0039
:100340005C200230A8003420B5290130A80002301A
:10035000A9007821B529AC011030AD005C20B52989
:100360000130AC002708AD005C2008000B08A3009A
:100370008B132300951715140000000013087F3914
:100380000319F7292000A400230011082000A5006C
:10039000230012082000A6002408A7008A212508AF
:1003A00023009100200026082300920095171514C1
:1003B00000000000130D140D7F390319F7292000E8
:1003C000A400230011082000A5002300120820002B
:1003D000A6002408A7008A212508230091002000F8
:1003E000260823009200910A0319920ABA292000D4
:1003F000A31B8B178031452A21000D1022000D1000
:1004000021008D1022008D1423008C018D0122000B
:1004100092019101940193012000A001A1019C2867
:10042000CE20CE207808A20022086C3C031D242A8E
:1004300021008D1122008D1508302300910000301D
:100440009200200021213A2A2208643C031D342A0C
:1004500021008D1122008D111230230091000030F7
:100460009200200021213A2A1C308501840080302E
:10047000850066290130A800A90078212D302300CD
:100480009100003092002000B6296430A80034208A
:040490000F2A6300CC
:020000040001F9
:04000E00E23FFF1EB0
:00000001FF
;PIC16F1827
;CRC=677D  CREATED="20-fev-22 10:15"
