:1000000015EF00F0EA6A080EE96EEF500DE0020EFF
:10001000016E006A002EFED7012EFBD7970E006EF0
:10002000002EFED7EF2EF3D71200F86AD09E700E86
:10003000D36ED350C150C00B0F09C16E070EB46E02
:10004000700ED36ED350C050C00B0109C06EC08E6D
:10005000C280C150C00B0D09C16E94948B940C0EDC
:10006000BD6EB76AB66A94928B92BA6E780E040926
:10007000CA6E200ECB6E0A0E086EC4DF000E016E33
:10008000C250C30B0110C26E010E086EBBDFC282EC
:10009000C2B2FED7C3CF04F0C4CF05F0010E086E84
:1000A000B1DF040E016EC250C30B0110C26E010E0F
:1000B000086EA8DFC282C2B2FED7C3CF06F0C4CF9B
:1000C00007F005C002F004C001F002320132023232
:1000D0000132023201C0BEFF02320230300B006E2C
:1000E000BD50CF0B0010BD6E07C002F006C001F07E
:1000F0000232013202320132023201C0BBFF02324F
:100100000230300B006EBA50CF0B0010BA6E010EE9
:08011000086E78DFB3D703008D
:020000040030CA
:0E0000003FC83E1E0007A1000FC00FE00F40DA
:00000001FF
;PIC18F4550
;CRC=2BDF  CREATED="22-jan-22 14:12"
