:1000000080319A2A00000B0028340C340134063465
:100010000B002D342D342D3400340B0044346E3459
:1000200000340B005534703400340C10D6376C3A61
:10003000E936653AF2372028C92100000C10253630
:100040007510D63163108A06A012EC3A2822753A50
:10005000F914A012730020308500143084000008C9
:1000600003193F280230F800F701F70B3528F80B89
:1000700034289730F700F70B3B28800B3228080014
:10008000203085001E3084000008031955280130F7
:10009000F800F701F70B4A28F80B49284A30F70017
:1000A000F70B50285328800B47280800450EF039DD
:1000B000F7000F300D0577048D0000000D14602847
:1000C0000D1008000D08F7000D0E0F39F80008009C
:1000D00021000D108D100D1120008D100F3021000A
:1000E0000D05F0388D0020000D1500000D140000E6
:1000F00062207808C5000D1000000D140000622079
:100100007808C4000D100F3021000D058D0020006F
:10011000450EF700F030F70577084404F80078083A
:10012000C400C41B6E28421C8D1042188D140000A0
:100130000D1100000D10430EC4000F30C40544081B
:10014000C500562043080F39C400C50056200800DA
:100150000F3021000D058D000D108D100D112000A8
:100160008D100D110D100F30BE0040200130B40075
:100170003408033C031CC4280330C5005620053056
:10018000BE004020B40AB8280230C5005620053011
:10019000BE004020B4013408033C031CD8283408B6
:1001A0000320B500C2013508C3006820B40ACB287B
:1001B0008031E62A3F0BDD28E0284030C000E128EE
:1001C000C00101303E02C00740088038C100C201B2
:1001D0004108C300682008003D08073A0319FA28BF
:1001E0000B3A0319FF28063A03190729023A0319A3
:1001F0000D2912290130BE00BF00DA201729C201E3
:100200000130C30068200230BE00402017290130B1
:10021000BE000230BF00DA201729C2011030C3002F
:10022000682017290130C2003D08C300682008007B
:100230000B08B4008B132300951715140000000061
:1002400013087F39031959292000B500230011082C
:100250002000B600230012082000B7003508BD00BA
:10026000EC2036082300910020003708230092007C
:100270009517151400000000130D140D7F39031994
:1002800059292000B500230011082000B6002300E2
:1002900012082000B7003508BD00EC203608230006
:1002A00091002000370823009200910A0319920A56
:1002B0001C292000B41B8B178031ED2AF801F901AD
:1002C000F701FA013C08031D68293B08031982293C
:1002D0001030BD000310B90DBA0DF70DFA0D3C0832
:1002E0007A02031D75293B087702031C7E293B080F
:1002F000F702031CFA033C08FA020314F80DF90D87
:10030000BD0B6A290800B801B701B6013608633C85
:10031000031C9B2921009D142330F7009D1C92296A
:10032000F70B8E291C08FA001B082000B7077A0873
:10033000B83DB60A86293808BA003708B900BC01AA
:100340006430BB005E217908FA007908F900790869
:10035000A3007808A2002308B7002208B600B9015C
:100360003030B8001030BA00F701FA01B70CB60C03
:10037000031CC0293808F7070318FA0A3908FA07D6
:10038000FA0CF70CF90CF80CBA0BB6297908B7007F
:100390007808B6007908BA007808B9000330BC00C4
:1003A000FF30BB005E217908B5007808B40034083E
:1003B000F8003508F9008031F12A0508BC0004086E
:1003C000BB00350EF038B700B707E23EB800323E4A
:1003D000BA0035080F39B807B807BA07E93EB900BF
:1003E000B907B907340E0F39B907BA07B90DBA0DF5
:1003F000BA09BA0D34080F39BA07B70D0730B6007D
:100400000A30BA07B903031C012AB907B803031C51
:10041000052AB807B703031C092AB707B603031C4C
:100420000D2A85013630840007303B053B138407D5
:100430003A30040203193B170008F700031D282A6D
:100440003B1B282A3B1A372ABB19282A20302B2A83
:10045000BB153B123030F7070508B5000408B4009F
:100460007708BD00EC203508850034088400013190
:100470003B1F182A08000B08B5008B1323009517A3
:100480001514000000000318672A13087F392000A4
:10049000B600230011082000B70023001208200036
:1004A000B8003608BD00EC2037082300910020007A
:1004B0003808230092009517151400000000200052
:1004C000B40B632A652A2300672A852A2300130DAB
:1004D000140D7F392000B600230011082000B7005A
:1004E000230012082000B8003608BD00EC203708B1
:1004F000230091002000380823009200910A03197C
:10050000920A03102000B40B3E2AB51B8B1708007B
:1005100080080319982A0508B5000408B4000008EB
:10052000BD00EC2035088500340884000131882A9C
:100530008031E22B6A302100990001302000A700B1
:10054000FF30A60023008C018D0122009201910151
:10055000940193015830210099001E169E121E131B
:100560009E171D141E109E101E11013023008C00BA
:1005700000308D0022001D109D101D1121008D11D5
:1005800022008D110C3025009300940195011E105E
:100590009E10013096007830F800043820009C004E
:1005A000FF309B000A30B4002B2021001E109E104B
:1005B0001E11023023008C0000308D0021001E1619
:1005C0009E161E139E171D142000A8281530230008
:1005D000910000309200200018293230B4002B2006
:1005E00083297908A9007808A8000030F8002100C4
:1005F0001D08833978049D000A302000B4002B20A8
:100600000430F80021001D08833978049D0006306D
:10061000F700F70B092B00000A302000B4002B2054
:100620002708F9002608F800F90CF80CF90CF80C6A
:10063000F90C780825009100F90C790C3039F70095
:100640001308CF39770493000A302000B4002B2020
:10065000AA0128080C3C031D302BA90803193E2BC6
:1006600028080D3C031D372BA90803193E2B280829
:100670000E3C031D522BA908031D522BB401B501DA
:10068000203085000A308400340884070030853D1E
:1006900035080820800000380319512BB50AB40A28
:1006A000402B9C2BA908031D592B28080B3C031831
:1006B000602BA908031D602B28080E3C03189C2BF7
:1006C000A908031D672B28080E3C03187E2B0A304F
:1006D000A6020030A73BB401B501203085000A30E6
:1006E0008400340884070030853D35080D208000E3
:1006F000003803197E2BB50AB40A6D2BA908031D17
:100700009C2B28080B3C031C9C2B0A30A6070030AE
:10071000A73DB401B501203085000A3084003408BB
:1007200084070030853D350811208000003803190A
:100730009C2BB50AB40A8B2BA708031DA62B2608F1
:10074000143C031CA62BA7010A30A6002708023C74
:100750000318B52BFF3A031DB12B2608E73C0318FD
:10076000B52B0330A700E830A6000C30BD00EC200C
:100770002030BD00EC20103084002908B500280886
:10078000B400DD21203023009100003092000314DA
:1007900008302000B4003B22103084002708B50048
:1007A0002608B400DD21263023009100003092009D
:1007B000031007302000B4003B22203085000A30AF
:0E07C0008400882A3230B4002B20F02A630017
:020000040001F9
:04000E00823FFF1E10
:00000001FF
;PIC16F1827
;CRC=483E  CREATED="29-jun-22 17:25"
