:1000000002308A0038280000831A0A28A400030E50
:10001000A5000F288312A400030EA500A5140A084A
:10002000AB008A018313A40E0408A6002008A700D1
:100030002108A8002208A9002308AA0083128C30F6
:100040008400001C25280C1809292608840027088C
:10005000A0002808A1002908A2002A08A3002B0854
:100060008A00250E83008312240EA518831609002A
:10007000FF238316900000308A00242A4630840033
:100080000008031951280130A100A001A00B462847
:10009000A10B45284A30A000A00B4C284F28800B0C
:1000A00043280800C5014208450203189728C408E0
:1000B000031D5F2883168510831285147328440B53
:1000C0006628831605128312051673284408023C1D
:1000D000031D6F28831685128312851673288316D5
:1000E0008510831285144308C6003E20C408031DF2
:1000F0007E2883168510831285109228440B85284C
:10010000831605128312051292284408023C031D2F
:100110008E288316851283128512922883168510E5
:10012000831285104308C6003E20C50A53280800E4
:10013000350BA6288316071283120712831687121F
:1001400083128716B5013230C6003E200800A00198
:10015000A101420803104318A007A00CA10CC3186A
:10016000A007A00CA10C4319A007A00CA10CC31957
:10017000A007A00CA10C431AA007A00CA10CC31A45
:10018000A007A00CA10C431BA007A00CA10CC31B33
:10019000A007A00CA10C0800C401420844020318E7
:1001A000E12883160511831205154308C6003E2079
:1001B00083160511831205114308C6003E20C40AA8
:1001C000CD2808008316071283120716831687129C
:1001D000831287160130B400B5003230C6003E20CD
:1001E0000800E220B601B001B208031DF928013071
:1001F000B200370B00298316851083128514042959
:1002000083168510831285100800AD01AE01AF0181
:1002100008008E019E308F0058308E002D08093C5A
:1002200003182A29AD01AE0A360B1C290130C20081
:10023000F430C300C40152200130C200F430C300C6
:100240000130C40052200130C200F430C30002303B
:10025000C40052202E083B3C03183129AD01AE01E9
:10026000AF0A2F083B3C03183829AD01AE01AF019E
:10027000300B842933082E020318432998200A30B2
:10028000C6003E2083292E08330203185E2903107E
:10029000330D2E0203185E29340B5A2983160712D8
:1002A000831207168316871283128712B401323025
:1002B000C6003E200A30C6003E2083290310330DBD
:1002C0002E0203197829031C78293308C200033051
:1002D000C300A72021082E02031878290330C2008A
:1002E0006430C300CC20F1200130B7000521832900
:1002F0003308C2000330C300A72021082E020319CF
:1003000083290318F1208529F120370B9429B0089F
:10031000031D94292E083302031894290230C200C9
:100320003230C300CC200521AD0A0C108A112528DB
:10033000AD01AE01AF01B001B101B2010530B300B2
:100340000130B400B500B701562A83160514831294
:100350000518D9293D083802031CD729BC08031DFC
:10036000D729370BC029B701AC018B1BAC178B13F6
:100370000230C2003230C300CC20AC1B8B17D42912
:10038000300BC429B001C929B008031DC9290130A7
:10039000B000AC018B1BAC178B130330C2002C30A8
:1003A000C300CC20AC1B8B17B8010130BC00B80ACD
:1003B000DD29B108031D0030B801962AAC018B1B62
:1003C000AC178B139820AC1B8B170130B600320B87
:1003D000ED29B201AD01AE01AF019C2A0230BD0092
:1003E000B108031DFC298316051483120518FC2986
:1003F0000230BD00B101212AB108031D082A83166D
:1004000005148312051C082ABD010130B100212A00
:10041000310B132A8316051483120518132A013091
:10042000BD00B101212A310B1E2A83160514831247
:10043000051C1E2ABD010130B100212A0230BD0079
:10044000B1013D08A1009D2A03081F398300AD01B9
:10045000AE01AF01B001B101B2010630B30001300D
:10046000B400B500B601B701B801B901BA01BB01CA
:10047000BC011F13003083169100073083129900CE
:10048000253090008E019E308F0058308E008316EC
:100490000C14C03083128B04AC018B1BAC178B1374
:1004A0003230C6003E20AC1B8B179829AC018B1B49
:1004B000AC178B13E220AC1B8B1783160714831227
:1004C00007186A2A83168714831287186A2A03304A
:1004D000B300932A8316071483120718772A83160A
:1004E00087148312871C772A0530B300932A83165A
:1004F00007148312071C842A831687148312871813
:10050000842A0730B300932A831607148312071C2A
:10051000912A831687148312871C912A0A30B3000C
:10052000932A0530B3000530BD00A529300B9C2A65
:10053000B608031D9C2ADE29EE29210BA02ABC0146
:10054000AC018B1BAC178B136430C6003E20AC1B78
:060550008B175D2A630019
:02400E00E43F8D
:00000001FF
;PIC16F676
;CRC=298E  CREATED="01-out-22 10:27"
