:060000008031C029000060
:0800080083018031200077081C
:10001000A0007808A1007908A2007A08A300850151
:1000200091308400001C162811181F282008F700A2
:100030002108F8002208F9002308FA00090080319D
:10004000B2282030850018308400000803193628B3
:100050000130F800F701F70B2B28F80B2A284A305B
:10006000F700F70B31283428800B282808002D0BC7
:100070004A2821000C1022000C1421000D1022002F
:100080000D1021008D1022008D142000AD013230A2
:10009000B80021200800F701F801350803103618D0
:1000A000F707F70CF80CB618F707F70CF80C361929
:1000B000F707F70CF80CB619F707F70CF80C361A17
:1000C000F707F70CF80CB61AF707F70CF80C361B05
:1000D000F707F70CF80CB61BF707F70CF80C08003D
:1000E000B701350837020318872821008C10220039
:1000F0008C1420003608B800212021008C1022002A
:100100008C1020003608B8002120B70A712808009A
:1001100021000D1022000D1421008D1022008D14DD
:1001200001302000AC00AD003230B80021200800C2
:100130008820AE01A801AA08031DA0280130AA004A
:100140002F0BA82821000C1022000C14AC28200032
:1001500021000C1022000C1020000800A501A601AF
:10016000A701080096019E30970058309600250898
:10017000093C0318DA28A501A60A2E0BDA2801305B
:10018000B500F430B600B701350837020318DA2895
:1001900021000C1022000C1420003608B800212089
:1001A00021000C1022000C1020003608B80021207D
:1001B000B70AC42826083B3C0318E128A501A6017C
:1001C000A70A27083B3C0318E828A501A601A701B8
:1001D000280B39292B0826020318F32837200A3068
:1001E000B8002120382926082B02031813290310F0
:1001F0002B0D2602031813292C0B0F2921000C109C
:1002000022000C1421000D1022000D1421008D106D
:1002100022008D102000AC013230B80021200A30BD
:10022000B8002120382903102B0D260203192D298F
:10023000031C2D292B08B5000330B6004B2078088D
:10024000260203182D290330B5006430B600702053
:1002500098200130AF00AE2038292B08B5000330BC
:10026000B6004B2078082602031938290318982075
:100270003A2998202F0B4929A808031D4929260847
:100280002B02031849290130B5003230B600702026
:10029000AE20A50A111080311628A501A601A701DC
:1002A000A801A901AA010530AB000130AC00AD00E6
:1002B000AF018031F2290230B000A908031D69297D
:1002C00021000D1520000D1969290230B000A90187
:1002D0008E29A908031D752921000D1520000D1D6B
:1002E0007529B0010130A9008E29290B8029210030
:1002F0000D1520000D1980290130B000A9018E29AB
:10030000290B8B2921000D1520000D1D8B29B00113
:100310000130A9008E290230B000A901300BA829B4
:100320002F0B9F29AF01A4018B1BA4178B13023045
:10033000B5003230B6007020A41B8B17A829280BFB
:10034000A329A801A829A808031DA8290130A800ED
:100350008031302A21000C1022000C142000A4014E
:100360008B1BA4178B133720A41B8B170130AE00F7
:100370002A0BBE29AA01A501A601A7018031332AB3
:100380006A30210099001A082000A501A601A701E2
:10039000A801A901AA010630AB000130AC00AD00F4
:1003A000AE01AF0123008C018D0122009201910169
:1003B00094019301253020009800990196019E3008
:1003C00097005830960021001114C0308B04200093
:1003D000A4018B1BA4178B133230B8002120A41B5F
:1003E0008B174D29A4018B1BA4178B138820A41BEA
:1003F0008B1721000D1720000D1B062A21008D17D9
:1004000020008D1B062A0330AB002F2A21000D1778
:1004100020000D1B132A21008D1720008D1F132A89
:100420000530AB002F2A21000D1720000D1F202AB8
:1004300021008D1720008D1B202A0730AB002F2AAA
:1004400021000D1720000D1F2D2A21008D172000DF
:100450008D1F2D2A0A30AB002F2A0530AB005B29F7
:10046000280B342AAA293B2AA4018B1BA4178B131F
:100470009820A41B8B17A4018B1BA4178B1364302B
:0C048000B8002120A41B8B17F929630091
:020000040001F9
:04000E00C23FFF1ED0
:00000001FF
;PIC16F1827
;CRC=5956  CREATED="21-set-22 22:21"
