:0600000080319829000088
:0800080083018031200077081C
:10001000A0007808A1007908A2007A08A300850151
:1000200091308400001C162811181F282008F700A2
:100030002108F8002208F9002308FA00090080319D
:10004000A9282030850017308400000803193628BD
:100050000130F800F701F70B2B28F80B2A284A305B
:10006000F700F70B31283428800B282808002D0BC7
:100070004A2821000C1022000C1421000D1022002F
:100080000D1021008D1022008D142000AD013230A2
:10009000B70021200800F701F801340803103518D3
:1000A000F707F70CF80CB518F707F70CF80C35192B
:1000B000F707F70CF80CB519F707F70CF80C351A19
:1000C000F707F70CF80CB51AF707F70CF80C351B07
:1000D000F707F70CF80CB51BF707F70CF80C08003E
:1000E000B601340836020318872821008C1022003C
:1000F0008C1420003508B700212021008C1022002C
:100100008C1020003508B7002120B60A712808009D
:1001100021000D1022000D1421008D1022008D14DD
:1001200001302000AC00AD003230B70021200800C3
:1001300021000C1022000C1020008820A801AA0821
:10014000031DA4280130AA000800A501A601A701EB
:10015000080096019E309700583096002508093C0B
:100160000318B428A501A60A26083B3C0318BB289F
:10017000A501A601A70A27083B3C0318C228A50130
:10018000A601A701280B13292B0826020318CD2846
:1001900037200A30B7002120122926082B02031825
:1001A000ED2803102B0D26020318ED282C0BE9284F
:1001B00021000C1022000C1421000D1022000D143F
:1001C00021008D1022008D102000AC013230B700CC
:1001D00021200A30B7002120122903102B0D2602FE
:1001E00003190729031C07292B08B4000330B500A5
:1001F0004B2078082602031807290330B400643026
:10020000B500702098200130AE00A52012292B08DF
:10021000B4000330B5004B207808260203191229D8
:1002200003189820142998202E0B2329A808031DB1
:10023000232926082B02031823290130B400323069
:10024000B5007020A520A50A111080311628A5013F
:10025000A601A701A801A901AA010630AB0001303F
:10026000AC00AD00AE018031C8290230AF00A90852
:10027000031D432921000D1520000D1943290230CB
:10028000AF00A9016829A908031D4F2921000D15F8
:1002900020000D1D4F29AF010130A9006829290B4D
:1002A0005A2921000D1520000D195A290130AF00DF
:1002B000A9016829290B652921000D1520000D1DB4
:1002C0006529AF010130A90068290230AF00A901FA
:1002D0002F0B82292E0B7929AE01A4018B1BA417A9
:1002E0008B130230B4003230B5007020A41B8B1782
:1002F0008229280B7D29A8018229A808031D8229AB
:100300000130A8008031D02921000C1022000C14EB
:100310002000A4018B1BA4178B133720A41B8B1761
:100320002A0B9629AA01A501A601A7018031D3298C
:100330006A30210099002000A501A601A701A801AB
:10034000A901AA010630AB000130AC00AD00AE013E
:1003500023008C018D0122009201910194019301EF
:10036000253020009800990196019E309700583062
:10037000960021001114C0308B042000A4018B1BB7
:10038000A4178B133230B7002120A41B8B17272909
:10039000A4018B1BA4178B138820A41B8B17352952
:1003A000280BD4298429DB29A4018B1BA4178B13C8
:1003B0009820A41B8B17A4018B1BA4178B136430EC
:0C03C000B7002120A41B8B17CF2963007D
:020000040001F9
:04000E00C23FFF1ED0
:00000001FF
;PIC16F1827
;CRC=4026  CREATED="21-set-22 12:27"
