:1000000001308A00F6290000FF00030E8301A500DD
:100010007F08A4000A08AB008A01A40E0408A60009
:100020002008A7002108A8002208A9002308AA0088
:10003000831383128C308400001C20280C18F228B3
:10004000260884002708A0002808A1002908A2008B
:100050002A08A3002B088A00250E8300FF0E7F0EBE
:100060000900413084000008031944280130A10030
:10007000A001A00B3928A10B38284A30A000A00B02
:100080003F284228800B36280800C0013D08400266
:1000900003187828BF08031D522883168510831281
:1000A00085145D283F0B5928831605128312051607
:1000B0005D2883168510831285143E08C100312007
:1000C000BF08031D682883168510831285107328C6
:1000D0003F0B6F28831605128312051273288316AF
:1000E0008510831285103E08C1003120C00A4628C1
:1000F0000800350B8B288316851083128514831610
:100100000712831207128316871283128716B5010E
:100110003230C10031200800A001A1013D080310C8
:100120003E18A007A00CA10CBE18A007A00CA10CA3
:100130003E19A007A00CA10CBE19A007A00CA10C91
:100140003E1AA007A00CA10CBE1AA007A00CA10C7F
:100150003E1BA007A00CA10CBE1BA007A00CA10C6D
:100160000800BF013D083F020318C6288316051189
:10017000831205153E08C100312083160511831234
:1001800005113E08C1003120BF0AB22808008316BD
:1001900007128312071683168712831287160130FF
:1001A000B400B5003230C10031200800C720B601CC
:1001B000B001B208031DDE280130B200370BE5287C
:1001C0008316851083128514E928831685108312FF
:1001D000851083160512831205120800AD01AE01C9
:1001E000AF0108008E019E308F0058308E002D0820
:1001F000093C03181129AD01AE0A360B052901305F
:10020000BD00F430BE00BF01452083168715831260
:10021000871D11290130BD00F430BE000130BF0040
:1002200045202E083B3C03181829AD01AE01AF0A4A
:100230002F083B3C03181F29AD01AE01AF01300B65
:100240006F2933082E0203182A2979200A30C100A9
:1002500031206E292E083302031849290310330D6B
:100260002E0203184929340B452983168510831261
:1002700085148316071283120716831687128312BA
:100280008712B4013230C10031200A30C100312060
:100290006E290310330D2E0203196329031C6329F1
:1002A0003308BD000330BE008C2021082E02031845
:1002B00063290330BD006430BE00B120D620013078
:1002C000B700EE206E293308BD000330BE008C203D
:1002D00021082E0203196E290318D6207029D62072
:1002E000370B7F29B008031D7F292E08330203181E
:1002F0007F290130BD003230BE00B120EE20AD0AB2
:100300000C108A112028AD01AE01AF01B001B1017E
:10031000B2010530B3000130B400B500B701342A92
:100320000230B800B108031D9E29831605148312FC
:1003300005189E290230B800B101C329B108031D78
:10034000AA29831605148312051CAA29B8010130B5
:10035000B100C329310BB529831605148312051882
:10036000B5290130B800B101C329310BC02983166A
:1003700005148312051CC029B8010130B100C3293E
:100380000230B800B101380BDD29370BD429B70191
:10039000AC018B1BAC178B130230BD003230BE009A
:1003A000B120AC1B8B17DD29300BD829B001DD291A
:1003B000B008031DDD290130B000722A83168510B4
:1003C000831285148316051283120516AC018B1B4C
:1003D000AC178B137920AC1B8B170130B600320B96
:1003E000F529B201AD01AE01AF01752A03081F392D
:1003F0008300613083168F000F088312AD01AE01B8
:10040000AF01B001B101B2010630B3000130B40058
:100410000130B500B601B70103171F109F101F115F
:100420009F1103131F13003003179E0099019A01B7
:1004300083169E0183129B0103138D1225309000B9
:100440008E019E308F0058308E0083160C14C03001
:1004500083128B04AC018B1BAC178B133230C100A1
:100460003120AC1B8B178329AC018B1BAC178B1372
:10047000C720AC1B8B178316071483120718482A52
:100480008316871483128718482A0330B300712A11
:100490008316071483120718552A831687148312AC
:1004A000871C552A0530B300712A8316071483125E
:1004B000071C622A8316871483128718622A073062
:1004C000B300712A831607148312071C6F2A831640
:1004D00087148312871C6F2A0A30B300712A0530F3
:1004E000B3009029300B762ADE297D2AAC018B1BC4
:1004F000AC178B13D620AC1B8B17AC018B1BAC1726
:100500008B136430C1003120AC1B8B173B2A630076
:02400E00E43F8D
:00000001FF
;PIC16F687
;CRC=6AA1  CREATED="26-set-22 07:41"
