:0600000080313A290000E6
:0800080083018031200077081C
:10001000A0007808A1007908A2007A08A300850151
:1000200091308400801E1628911A1F282008F7009E
:100030002108F8002208F9002308FA00090080319D
:100040006C280B08C5008B132300951715140000AE
:10005000000013087F39031968282000C600230018
:1000600011082000C700230012082000C80046081D
:10007000111E382823009A00200047082300910011
:100080002000480823009200951715140000000076
:10009000130D140D7F39031968282000C6002300B2
:1000A00011082000C700230012082000C8004608DD
:1000B000111E582823009A002000470823009100B1
:1000C0002000480823009200910A0319920A25286B
:1000D0002000C51B8B170800B801FD3023009100DC
:1000E0000030920020002120911E7428230019085E
:1000F0002000C30043085B3C031D8628A401003098
:1001000023009100013092002000212043085B3C35
:100110000319A02843085D3C0319A028C31203302B
:100120002300910001309200200021200530240797
:100130008400203085000318850A43088000A40A43
:1001400043085D3C031DDC282F140630230091007A
:1001500001309200200021204330C4002F1CDC28F5
:100160002F100130FA000930C5007A08C60010309F
:10017000C5072030C63D0130FA000E30C5077A08A9
:10018000C63D4408C5070030C63D46088500450801
:10019000840080080319DC280508C8000408C7008B
:1001A0000008111ED12823009A002000480885006D
:1001B000470884000131C9284308613C031DEB282E
:1001C00021000D1022000D14113023009100013088
:1001D0009200200021204308623C031DFA282100E0
:1001E0000D1022000D101A302300910001309200F2
:1001F000200021209112803116283E1F5018000047
:100200003E1FD01800013E1F501900013E1FD0199B
:1002100000010A340D344934443400343E3420346F
:10022000003443346139A0303A10C1316537E432CB
:1002300021050D004334613920313A104138E13352
:10024000E1108A0600002030850017308400000885
:10025000031938290130F800F701F70B2D29F80BA5
:100260002C294A30F700F70B33293629800B2A292D
:1002700080315D2923009F15A0309B0001309C0038
:10028000A6309E0090309D008C018D0122009201CD
:1002900091019401930121009116C0308B040D103F
:1002A00022000D1421008D13803022008D060430B1
:1002B0002000B600FA30B7002329B60B5A292200D5
:0402C000522963005C
:020000040001F9
:04000E008139FF1E17
:00000001FF
;PIC16F1827
;CRC=E0C2  CREATED="20-fev-22 20:48"
