:060000008031CC2F00004E
:0800080083018031200077081C
:10001000A0007808A1007908A2007A08A300850151
:1000200091308400801E1628911A1F282008F7009E
:100030002108F8002208F9002308FA00090080319D
:10004000D4280B0031343634463431343834323429
:10005000373400340B0000340B00303430340034BB
:1000600050344934433400344534723472346F347C
:100070002C34203463346D346434203469346E3469
:100080007634003480080319582805082200A80097
:100090000408A70000082000111E4C2823009A0025
:1000A000220028088500270884000131200042280A
:1000B00008000B082200A8008B13230095171514C5
:1000C0000000000003188A2813087F392200A900C5
:1000D000230011082200AA00230012082200AB000E
:1000E00029082000111E722823009A0022002A08E5
:1000F0002300910022002B0823009200951715146D
:10010000000000002200A70B8628882823008A28E8
:10011000AC282300130D140D7F392200A900230001
:1001200011082200AA00230012082200AB002908AF
:100130002000111E992823009A0022002A0823007B
:10014000910022002B0823009200910A0319920AC1
:1001500003102200A70B5D28A81B8B1720000800A6
:10016000203085002F30840000080319C528013095
:10017000F800F701F70BBA28F80BB9284A30F70056
:10018000F70BC028C328800BB7280800780803198C
:10019000CD2877081A00F80BC928080021000D1097
:1001A00022000D1020000800BB01911ED52823005D
:1001B00019082000BC003C085C3C0319A5013C0860
:1001C0005C3C0319F1283C083B3C0319F12806303C
:1001D00025078400203085000318850A3C0880002C
:1001E000A50A3C083B3C031DB32E4530BD00351429
:1001F0002508033C0318782E25080E3C031C782E96
:100200000630BE00BF012608483C031DE729270829
:10021000453C031DE72928084C3C031DE729290814
:10022000503C031DE7295330CF006830D0004130E7
:10023000D1006430D2007230D3002C30D400203092
:10024000D5005330D6006830D7004830D80064302D
:10025000D9007730DA002C30DB002030DC0053305E
:10026000DD006830DE004230DF007530E0006630CF
:10027000E1002C30E200E30141302100A7006430AE
:10028000A8007230A9003430AA003530AB003630F7
:10029000AC002C30AD002030AE004130AF006430F7
:1002A000B0007230B1004630B2003430B3003530A7
:1002B000B4003630B5002C30B6002030B7004330E3
:1002C000B8006C30B9007230BA003430BB00353041
:1002D000BC003630BD002C30BE002030BF004330A3
:1002E000C0006C30C1007230C2004630C3002C30F8
:1002F000C4002030C5005230C6007330C7007430CF
:10030000C8003430C9003530CA003630CB00CC01CB
:100310005230CF007330D0007430D1004630D2005C
:10032000D3010D302000111E932923009A000A30BA
:100330002000111E992923009A0030308501840085
:100340008030850020004220203085001630840057
:1003500042202330111EAA2923009A0020302000B9
:10036000111EB02923009A00203085002F30840010
:1003700020004220BD30230091000730920003107E
:100380000A302200A7002000592020308500573075
:1003900084004220C43023009100073092000310F3
:1003A0000A302200A70020005920203085007F302D
:1003B000840042200A30111EDB2923009A000D30F0
:1003C0002000111EE12923009A00322E2000260869
:1003D000533C031D602B2708483C031D602B280855
:1003E000413C031D5A2A2908443C031D5A2A2A0865
:1003F000523C031D5A2A3708BF003808C00020307D
:10040000C200C3000D30111E032A23009A000A30D7
:100410002000111E092A23009A0030308501840033
:1004200080308500200042203708111E152A230045
:100430009A0020003808111E1B2A23009A0023303E
:100440002000111E212A23009A0020302000111EB6
:10045000272A23009A007C302000111E2D2A230019
:100460009A0020003708111E332A23009A007C309E
:100470002000111E392A23009A0020003808111E7E
:100480003F2A23009A007C302000111E452A2300B9
:100490009A000D302000111E4B2A23009A000A30CA
:1004A0002000111E512A23009A0064302000CF0042
:1004B000B0205F2B2808483C031DB82A2908443C7B
:1004C000031DB82A2A08573C031DB82ACF01D001C2
:1004D000203085001F3084004F0884070030853DA0
:1004E00050082120800000380319792AD00ACF0A49
:1004F000682A0D30111E7A2A23009A000A30200043
:10050000111E802A23009A0030308501840080303B
:100510008500200042203708111E8C2A23009A00F3
:1005200020003808111E922A23009A002330200050
:10053000111E982A23009A0020302000111E9E2AA6
:1005400023009A00203085001F30840020004220C4
:100550000D30111EA92A23009A000A302000111E16
:10056000AF2A23009A0064302000CF00B0205F2B18
:100570002808423C031D242B2908553C031D242B2D
:100580002A08463C031D242BCE014E080E3C031CBA
:10059000E52A1F304E07F8002030FA000318FA0A47
:1005A0007808CF007A08D00006304E07840020304B
:1005B00085000318850A0008D100500885004F08FF
:1005C000840051088000CE0AC52A0D30111EE62A8B
:1005D00023009A000A302000111EEC2A23009A0002
:1005E00030308501840080308500200042203708AB
:1005F000111EF82A23009A0020003808111EFE2A36
:1006000023009A0023302000111E042B23009A009F
:1006100020302000111E0A2B23009A002030850074
:100620001F308400200042200D30111E152B2300A6
:100630009A000A302000111E1B2B23009A00643000
:100640002000CF00B0205F2B0D30111E252B230082
:100650009A000A302000111E2B2B23009A00303004
:100660008501840080308500200042203708111E5B
:10067000372B23009A0020003808111E3D2B230041
:100680009A0023302000111E432B23009A002030B3
:100690002000111E492B23009A003430850184006C
:1006A0008030850020004220C730230091000630B2
:1006B0009200031009302200A70020005920312E9B
:1006C0003708303C031D682B3808303C03197E2B5B
:1006D000CF01D00120308500163084004F088407F8
:1006E0000030853D50082A208000003803197B2BFC
:1006F000D00ACF0A6A2B003A0319282C2608413C5D
:10070000031DEC2B2708443C031DEC2B2808523C0E
:10071000031DEC2BCF01D001203085001630840062
:100720004F0884070030853D50082A20800000389B
:1007300003199D2BD00ACF0A8C2B20308500163050
:100740008400F7010330F800C6202908B7002A0802
:10075000B8003708BF003808C0000D30111EAE2B9E
:1007600023009A000A302000111EB42B23009A00A7
:100770003030850184008030850020004220370819
:10078000111EC02B23009A0020003808111EC62B12
:1007900023009A0023302000111ECC2B23009A0046
:1007A00020302000111ED22B23009A00203085001B
:1007B0001F308400200042200D30111EDD2B23004D
:1007C0009A000A302000111EE32B23009A006430A7
:1007D0002000CF00B020272C0D30111EED2B230060
:1007E0009A000A302000111EF32B23009A003030AB
:1007F0008501840080308500200042203708111ECA
:10080000FF2B23009A0020003808111E052C23001E
:100810009A0023302000111E0B2C23009A00203058
:100820002000111E112C23009A0034308501840011
:100830008030850020004220D23023009100063015
:100840009200031009302200A70020005920312E09
:100850002608413C031D7F2C2708443C031D7F2CA8
:100860002808523C031D7F2C2908463C031D7F2C81
:100870002A08B7002B08B8003708BF003808C000A6
:100880000D30111E412C23009A000A302000111E49
:10089000472C23009A003030850184008030850089
:1008A000200042203708111E532C23009A002000FC
:1008B0003808111E592C23009A0023302000111EE5
:1008C0005F2C23009A0020302000111E652C23008D
:1008D0009A00203085001F308400200042200D3017
:1008E000111E702C23009A000A302000111E762C55
:1008F00023009A0064302000CF00B020312E26085B
:10090000433C031D0B2D27084C3C031D0B2D2808D1
:10091000523C031D0B2D37082902031D0B2D3808EF
:100920002A02031D0B2D3030B700B800D73023004A
:10093000910006309200031007302200A70020002B
:1009400059203708111EA22C23009A007C30200069
:10095000111EA82C23009A0020003808111EAE2C6E
:1009600023009A00DD30910006309200031004301D
:100970002200A70020005920CF01D001203085009F
:10098000163084004F0884070030853D50082C2025
:10099000800000380319CF2CD00ACF0ABE2C3708AC
:1009A000BF003808C0000D30111ED42C23009A005F
:1009B0000A302000111EDA2C23009A003030850105
:1009C00084008030850020004220203085001630D1
:1009D000840042202330111EEB2C23009A0020308B
:1009E0002000111EF12C23009A00203085001F30BA
:1009F0008400200042200D30111EFC2C23009A00A0
:100A00000A302000111E022D23009A0064302000BD
:100A1000CF00B020312E2608523C031DFD2D2708A3
:100A2000533C031DFD2D2808543C031DFD2D0D30A6
:100A3000111E182D23009A000A302000111E1E2DB1
:100A400023009A0020302000111E242D23009A003C
:100A500020003708111E2A2D23009A002000380894
:100A6000111E302D23009A00E330910006309200D1
:100A7000031405302200A70020005920370829025E
:100A8000031D802D38082A02031D802D3708BF0062
:100A90003808C0000D30111E4B2D23009A000A307B
:100AA0002000111E512D23009A0030308501840052
:100AB00080308500200042202030850016308400E0
:100AC00042202330111E622D23009A002030200086
:100AD000111E682D23009A00203085001F308400ED
:100AE000200042200D30111E732D23009A000A3081
:100AF0002000111E792D23009A002000CE20F92D10
:100B00002908463C031DBE2D3708BF003808C00029
:100B10000D30111E892D23009A000A302000111E6D
:100B20008F2D23009A0030308501840080308500AD
:100B300020004220203085001630840042202330DF
:100B4000111EA02D23009A0020302000111EA62D7A
:100B500023009A00203085001F30840020004220AE
:100B60000D30111EB12D23009A000A302000111EF5
:100B7000B72D23009A002000CE20F92D0D30111E34
:100B8000BF2D23009A000A302000111EC52D23001E
:100B90009A0030308501840080308500200042209A
:100BA0003708111ED12D23009A0020003808111E8D
:100BB000D72D23009A0023302000111EDD2D2300A5
:100BC0009A0020302000111EE32D23009A003430BB
:100BD000850184008030850020004220ED30230014
:100BE000910006309200031009302200A700200077
:100BF00059206430CF00B020312E0D30111EFE2D53
:100C000023009A000A302000111E042E23009A00AF
:100C10003030850184008030850020004220203063
:100C200085001630840042202330111E152E23002B
:100C30009A0020302000111E1B2E23009A00343011
:100C4000850184008030850020004220F730230099
:100C500091000630920003100A302200A700200005
:100C6000592023001F30F8002030F90078082000B8
:100C7000BD00351C772E6430CF00B02035103030E9
:100C8000850184008030850042203608111E462EE2
:100C900023009A0020003708111E4C2E23009A00D2
:100CA0003E302000111E522E23009A0020302000DA
:100CB000111E582E23009A00850120003D08840053
:100CC000422085013D088400F7010130F800C6206C
:100CD0002030850006308400F7010F30F800C62070
:100CE00085013C088400F7010130F800C620B32ECE
:100CF0000D30111E792E23009A000A302000111E9B
:100D00007F2E23009A0030308501840080308500DA
:100D1000200042203608111E8B2E23009A0020004E
:100D20003708111E912E23009A0023302000111E37
:100D3000972E23009A0020302000111E9D2E2300A4
:100D40009A003430850184008030850020004220E4
:100D5000BC302300910006309200031009302200BD
:100D6000A700200059209112803116280D05A539C1
:100D7000A531A5312310A539A016A0323118B1062E
:100D80000A000D05A539A531A5312310A539A016F6
:100D9000A0323118B6060A000D05A539A531A531D6
:100DA0002310A539A016A0323118B7060A000D0588
:100DB00050193A10FC12633EA5317C100D0500015C
:100DC0000D05A012E312631020100D0500010D05A2
:100DD000A539A531A5312310A5392D10E5183118F5
:100DE000E1060A000D05A539A5392310A539A0167D
:100DF000A032B11830310D05000050344234303487
:100E000000345034423431340034503442343234BB
:100E100000345034423433340034503442343434A7
:100E20000034503442343534003450344234363493
:100E30000034503442343734003450344334303486
:100E40000034503443343134003450344334323479
:100E50000034503443343334003450344334343465
:100E60000034503443343534003450344334363451
:100E70000034503443343734003450344434303444
:100E80000034503444343134003450344434323437
:100E90000034503444343334003450344434343423
:100EA000003450344434353400345034443436340F
:100EB0000034503444343734003450344234303405
:100EC00000345034423431340034503442343234FB
:100ED00000345034423433340034503442343434E7
:100EE00000345034423435340034503442343634D3
:100EF00000345034423437340034503443343034C6
:100F000000345034433431340034503443343234B8
:100F100000345034433433340034503443343434A4
:100F20000034503443343534003450344334363490
:100F30000034503443343734003450344434303483
:100F40000034503444343134003450344434323476
:100F50000034503444343334003450344434343462
:100F6000003450344434353400345034443436344E
:100F7000003450344434373400348A0620102010B2
:100F800020102010A53900018A0620102010201002
:100F90002010A5398A06000023009F15A0309B0071
:100FA00001309C00A6309E0090309D008C018D0188
:100FB0002200920191019401930121009116C03009
:100FC0008B0488312000002880310230B900A40150
:100FD0008B1BA4178B139630CF00B020A41B8B174C
:080FE000B90BE72FE52F6300B8
:1010000021000D1022000D1430302000B600B70072
:10101000B800B900B901B908031D192821000D1342
:1010200022000D1321008D1322008D172000B5140E
:101030003028390B262821000D1322000D1721001E
:101040008D1322008D132000B510302821000D13C0
:1010500022000D1321008D1322008D172000B514DE
:10106000351430308501840080308500A4018B1B4D
:10107000A4178B13803142208831A41B8B1720309A
:10108000850016308400A4018B1BA4178B138031BC
:1010900042208831A41B8B173E30111E4D2823009F
:1010A0009A0020302000111E532823009A0080311E
:0410B0002000E42F09
:020000040001F9
:04000E008139FF1E17
:00000001FF
;PIC16F1827
;CRC=BCA4  CREATED="22-fev-22 09:36"
