:02000000D12805
:0E0006008312031321088A00200882000800DC
:1000140083120313FB01FA01F9018030F800F10C9B
:10002400F00C031C1E287408F90775080318750FD3
:10003400FA070318FB0A0310F01F26287408FA07AE
:1000440075080318750FFB07FB0CFA0CF90CF80C78
:10005400031C11287B08F3007A08F2007908F100E8
:060064007808F00008001E
:0C006A00831203139B011D129D1208005D
:10007600831603138710831212150C309D04080093
:10008600831603130711831212150C309704080008
:0C00960083120313950117129712080043
:1000A200831603131208013EF000F1010318F10A4E
:1000B20083122408F400F5010A200630F2007008C9
:1000C200F4007108F500720803196C28F50CF40CA1
:1000D200F513FF3E65280430F1007408F000710842
:1000E20003197728F00D7010FF3E7128303070052B
:1000F200F3007408F0007508F100F10CF00CF11334
:10010200F10CF00CF113700895000F30970573088D
:040112009704080046
:10011600831603131208013EF000F1010318F10AD9
:1001260083122408F400F5010A200630F200700854
:10013600F4007108F50072080319A628F50CF40CF2
:10014600F513FF3E9F280430F1007408F000710893
:100156000319B128F00D7010FF3EAB283030700542
:10016600F3007408F0007508F100F10CF00CF113BF
:10017600F10CF00CF11370089B000F309D0573080D
:040186009D040800CC
:10018A0003208A110A128000840AA00A0319A10A0C
:08019A00F003031DC528080055
:1001A200103083120313A2001030A300FF30831615
:1001B2008800870183121214921063308316920012
:1001C2004B20121492106330831692003520432084
:1001D2003B202208A40051202308A4008B200818E9
:1001E200FF286830FC00E430FD00FD0BF628FC0B14
:1001F200F6280000A20A2208A400512088180E291D
:100202006830FC00E430FD00FD0B0529FC0B0529DC
:100212000000A2032208A400512008191D296830F9
:10022200FC00E430FD00FD0B1429FC0B1429000036
:10023200A30A2308A4008B2088192C296830FC000B
:10024200E430FD00FD0B2329FC0B23290000A3034E
:100252002308A4008B201A30FC00F830FD00FD0BAF
:0C0262003029FC0B30290000F028362960
:02400E004A2F37
:00000001FF
