:100000008031A02800000B0028340C340134063461
:100010002030850002308400000803191D280130BB
:10002000F800F701F70B1228F80B11284A30F700F7
:10003000F70B18281B28800B0F280800260EF03914
:10004000F7000F300D0577048D0000000D142828EF
:100050000D1008000D08F7000D0E0F39F80008000C
:100060000F3021000D058D000D108D100D11200099
:100070008D100D110D100F30A20008200130A100CD
:100080002108033C031C4C280330A6001E20053029
:10009000A2000820A10A40280230A6001E20053038
:1000A000A2000820A1012108033C031C9E2821086E
:1000B0000320A200A3012208A40021000D108D102E
:1000C0000D1120008D100F3021000D05F0388D002E
:1000D00020000D1500000D1400002A207808A6004D
:1000E0000D1000000D1400002A207808A5000D1046
:1000F0000F3021000D058D002000260EF700F03096
:10010000F70577082504F8007808A500A51B6328E3
:10011000231C8D1023188D1400000D1100000D10EC
:10012000240EA5000F30A5052508A6001E202408D2
:100130000F39A500A6001E20A10A53288031B4283B
:100140006A302100990023009F1119309B00A630CE
:100150009E0090309D008C018D0122009201910142
:0C0160009401930120003028B4286300B3
:020000040001F9
:04000E00C409FF1C06
:00000001FF
;PIC16F1827
;CRC=AF36  CREATED="12-fev-22 11:33"
