:100000008031FF2A00000B0028340C340134063400
:100010000C10D6376C3AE936653AF2372028C921F8
:1000200000000C1025367510D63163102D102536C2
:10003000751025367510253675108A06A012EC3A13
:100040002822753AF9140000203085002130840000
:100050000008031938280230F800F701F70B2E28A2
:10006000F80B2D289730F700F70B3428800B2B283E
:100070000800203085002B308400000803194E282A
:100080000130F800F701F70B4328F80B42284A30FB
:10009000F700F70B49284C28800B40280800520E27
:1000A000F039F7000F300D0577048D0000000D14B6
:1000B00059280D1008000D08F7000D0E0F39F80033
:1000C000080021000D108D100D1120008D100F3033
:1000D00021000D05F0388D0020000D1500000D14D5
:1000E00000005B207808D2000D1000000D14000005
:1000F0005B207808D1000D100F3021000D058D0018
:100100002000520EF700F030F70577085104F80090
:100110007808D100D11B67284F1C8D104F188D1403
:1001200000000D1100000D10500ED1000F30D10550
:100130005108D2004F2050080F39D100D2004F2073
:1001400008000F3021000D058D000D108D100D11D0
:1001500020008D100D110D100F30CB003920013013
:10016000C1004108033C031CBD280330D2004F20CE
:100170000530CB003920C10AB1280230D2004F200F
:100180000530CB003920C1014108033C031CD128B4
:1001900041080320C200CF014208D0006120C10AFB
:1001A000C4288031562B4C0BD628D9284030CD009E
:1001B000DA28CD0101304B02CD074D088038CE0042
:1001C000CF014E08D000612008004A08073A031901
:1001D000F3280B3A0319F828063A03190029023AC2
:1001E000031906290B290130CB00CC00D32010299C
:1001F000CF010130D00061200230CB00392010291E
:100200000130CB000230CC00D3201029CF011030B8
:10021000D000612010290130CF004A08D0006120B1
:1002200008000B08C1008B1323009517151400005C
:10023000000013087F39031952292000C20023004F
:1002400011082000C300230012082000C400420847
:10025000CA00E52043082300910020004408230041
:1002600092009517151400000000130D140D7F392E
:10027000031952292000C200230011082000C300E6
:10028000230012082000C4004208CA00E5204308E9
:10029000230091002000440823009200910A0319D2
:1002A000920A15292000C11B8B1780315D2B460D4A
:1002B000F700F70DFC30F70521001D08833977049E
:1002C0009D000C30F700F70B6329662900009D1490
:1002D0002330F7009D1C6E29F70B6A291C08FA00D1
:1002E0001B08F8001C08F90020000800F801F901BB
:1002F000F701FA014908031D8029480803199A29C2
:100300001030CA000310C60DC70DF70DFA0D4908CD
:100310007A02031D8D2948087702031C9629480894
:10032000F702031CFA034908FA020314F80DF90D49
:10033000CA0B82290800C501C401C3014308633CFC
:10034000031CAB290130C60057217808C40779087F
:10035000C53DC30A9E294508C7004408C600C90117
:100360006430C80076217908FA007908F900790824
:10037000A3007808A2002308C4002208C300C60115
:100380003030C5001030C700F701FA01C40CC30CAF
:10039000031CD0294508F7070318FA0A4608FA078C
:1003A000FA0CF70CF90CF80CC70BC6297908C40035
:1003B0007808C3007908C7007808C6000330C90070
:1003C000FF30C80076217908C2007808C1004108D2
:1003D000F8004208F90080317B2B4208C300C308B3
:1003E000031D002A2A0BFA294308AA000030F8004E
:1003F000042AFF294308AA000130F800042A042A2D
:100400004308AA000130F800F808031D4A2AAB0A85
:100410000319AC0AAD0A0319AE0AAE08031D142A6B
:100420002D083B3C03184A2A2C08C7002B08C6009D
:10043000C9013C30C80076217908FA007808C30069
:100440007A08C4008E30F7004408F8004308F90029
:10045000FA01F808031D362A7908F800F901083076
:10046000F702F808031D362AF7013E2A0310F81B8D
:100470003D2AF90DF80DF703362AF8137A08B20071
:100480007908B1007808B0007708AF00AC01AB0183
:10049000AE01AD012F08F7003008F8003108F9006F
:1004A0003208FA008031882B0508C9000408C8000A
:1004B000420EF038C400C407E23EC500323EC70019
:1004C00042080F39C507C507C707E93EC600C6077A
:1004D000C607410E0F39C607C707C60DC70DC709A6
:1004E000C70D41080F39C707C40D0730C3000A30D4
:1004F000C707C603031C782AC607C503031C7C2A4A
:10050000C507C403031C802AC407C303031C842A31
:10051000850143308400073048054813840747307D
:100520000402031948170008F700031D9F2A481BFF
:100530009F2A481AAE2AC8199F2A2030A22AC81515
:1005400048123030F7070508C2000408C1007708D8
:10055000CA00E52042088500410884000131481F97
:100560008F2A08000B08C2008B132300951715145F
:10057000000000000318DE2A13087F392000C300A2
:10058000230011082000C400230012082000C50029
:100590004308CA00E52044082300910020004508D4
:1005A0002300920095171514000000002000C10BD5
:1005B000DA2ADC2A2300DE2AFC2A2300130D140D7C
:1005C0007F392000C300230011082000C40023004D
:1005D00012082000C5004308CA00E5204408230093
:1005E00091002000450823009200910A0319920A05
:1005F00003102000C10BB52AC21B8B1708006A30FC
:10060000210099002000AC01AB01AE01AD01B201A7
:10061000B101B001AF01B401B301B601B5010130C0
:10062000B800FF30B70023008C018D012200920139
:100630009101940193012000BA01B9010F306500C6
:10064000003066005830210099001E169E121E13BD
:100650009E171D1422001D109D101D1121008D11CB
:1006600022008D110C3025009300940195011E107D
:100670009E10013096007830F800043820009C006D
:10068000FF309B000A30C100242021001E109E1064
:100690001E11023023008C0000308D0021001E1638
:1006A0009E161E139E171D142000A128083023003B
:1006B000910000309200200011293230C100242026
:1006C000BA08031D672B3908133C03186C2BBA01B9
:1006D000B901B30A0319B40AB408031D732B330814
:1006E0003A3C03187A2BBA01B901B401B301B50A37
:1006F0000319B60A9B297908BC007808BB002100C1
:100700000C16003020000C1A0130C100C200ED2987
:100710007A08C0007908BF007808BE007708BD00DD
:100720000130C60057217908B8007808B7002100C9
:100730000C1520000C1DA62B3230B7070030B83D39
:1007400021000C1222000C16B92B200021008C1560
:1007500020008C1DB52B3230B7020030B83B210091
:100760000C1222000C16B92B200021000C122200C2
:100770000C1220003808F9003708F800F90CF80CC2
:10078000F90CF80CF90C780825009100F90C790C9B
:100790003039F7001308CF39770493000A3020006E
:1007A000C1002420B808031DDC2B3708013C031CC2
:1007B000DC2BB8010130B7003808023C0318EB2BE2
:1007C000FF3A031DE72B3708FE3C0318EB2B0330E1
:1007D000B800FF30B7000C30CA00E5202030CA0056
:1007E000E520103084003C08C2003B08C1005422C0
:1007F00013302300910000309200031407302000D2
:10080000C100B222103084003608C2003508C10091
:1008100054222030CA00E520103084003408C20081
:100820003308C10054222030CA00E5201030840073
:100830003A08C2003908C10054221C30230091003C
:1008400000309200031404302000C100B2221030A6
:1008500084003808C2003708C10054222030230029
:10086000910000309200031006302000C100B22237
:100870003230C1002420B90A0319BA0A602B630080
:020000040001F9
:04000E00823FFF1E10
:00000001FF
;PIC16F1827
;CRC=B6D6  CREATED="29-set-21 16:30"
