:100000008031AE2900000B0028340C340134063452
:100010005228CD1EA012B33A2C10D41EA51975106B
:100020008A06A012B33A683D2C10251A7529F036BD
:100030000000203085000D308400000803192E28B0
:100040000130F800F701F70B2328F80B22284A307B
:10005000F700F70B29282C28800B20280800340EE5
:10006000F039F7000F300D0577048D0000000D14F6
:1000700039280D1008000D08F7000D0E0F39F80093
:10008000080021000D108D100D1120008D100F3073
:1000900021000D05F0388D0020000D1500000D1415
:1000A00000003B207808B4000D1000000D14000083
:1000B0003B207808B3000D100F3021000D058D0096
:1000C0002000340EF700F030F70577083304F8000D
:1000D0007808B300B31B4728311C8D1031188D14DC
:1000E00000000D1100000D10320EB3000F30B305EB
:1000F0003308B4002F2032080F39B300B4002F208A
:1001000008000F3021000D058D000D108D100D1110
:1001100020008D100D110D100F30AD001920013091
:10012000A7002708033C031C9D280330B4002F20A0
:100130000530AD001920A70A91280230B4002F2005
:100140000530AD001920A7012708033C031CB12886
:1001500027080320A800B1012808B2004120A70AFF
:10016000A4288031CA292A08F80129020318BB28CB
:100170002908F700C728F7010830AB00A90DF70DD3
:100180002A0877020318F700F80DAB0BBE28080009
:10019000F701F801270803102818F707F70CF80CE7
:1001A000A818F707F70CF80C2819F707F70CF80C44
:1001B000A819F707F70CF80C281AF707F70CF80C32
:1001C000A81AF707F70CF80C281BF707F70CF80C20
:1001D000A81BF707F70CF80C8031EA292E0BF12841
:1001E000F4284030AF00F528AF0101302D02AF07F1
:1001F0002F088038B000B1013008B200412008005B
:100200002C08073A03190E290B3A03191329063A49
:1002100003191B29023A0319212926290130AD00AF
:10022000AE00EE202B29B1010130B2004120023096
:10023000AD0019202B290130AD000230AE00EE20B8
:100240002B29B1011030B20041202B290130B1001F
:100250002C08B200412008000B08A8008B132300D3
:1002600095171514000000000318582913087F394A
:100270002000A900230011082000AA002300120872
:100280002000AB002908AC0000212A0823009100BF
:1002900020002B0823009200951715140000000081
:1002A0002000A70B5429562923005829762923001A
:1002B000130D140D7F392000A90023001108200020
:1002C000AA00230012082000AB002908AC0000217E
:1002D0002A082300910020002B0823009200910A95
:1002E0000319920A03102000A70B2F29A81B8B17B4
:1002F000080078082708A9006430AA00B32077080E
:10030000A70078083030031D8C29A81C9329A81950
:100310009329281A20308F29A81128122814F807A9
:100320007808AC0000212708A9000A30AA00B320F1
:100330007708A70078083030031DA429A819A82938
:10034000281CA829281A2030F8077808AC000021BA
:100350003030A7072708AC00002108006A302100D0
:1003600099001A082000A301A401A501A6012300F9
:100370008C018D01220092019101940193012100D1
:100380001508C73928389500200095018B16C03014
:100390008B0481281508A0000430A700FA30AD00B6
:1003A0001920A70BCE292008A2002008210203183B
:1003B000DC292008A100EE292308A400FF30A900B1
:1003C0002308AA00B3207808A5002508A7003C3020
:1003D000A800C8287808A600A301A1010130AD003B
:1003E000AE00EE2008302300910000309200031090
:1003F00005302000A7002C212208A7001330A800F8
:1004000079210C3023009100003092000310043059
:100410002000A7002C212408A7001330A800792170
:100420000F302300910000309200031404302000AC
:10043000A7002C212508A7001330A800792113302C
:100440002300910000309200031004302000A70028
:100450002C210130A7002030AC000021A70B2B2A53
:100460002608A7001330A80079215230AC000021E3
:100470007030AC0000216D30AC000021A30ACA2905
:02048000630017
:020000040001F9
:04000E00843FFF1E0E
:00000001FF
;PIC16F1827
;CRC=D0B2  CREATED="26-set-21 12:59"
